{
  "transactions": [
    {
      "hash": "0x9eb5ed54762ec5902804ecda454efcf3ea3227c860ad3adefa00c6d87f61994e",
      "transactionType": "CALL",
      "contractName": null,
      "contractAddress": "0xbdd1e681d19ce84e691c14f87b157cff1c181625",
      "function": "setConfig(address,address,address)",
      "arguments": [
        "0xB4359c18D30DDe538cBD16b3206Edd6832DC2C1F",
        "0xED08E5b96a450f3000aeA8e1b7c7A746199B2757",
        "0x54E18c73f006dB44632349B2df2fc5F489a851Cd"
      ],
      "transaction": {
        "from": "0x26ac13de5cb56a39f0c961fa6936ffc20b307ef1",
        "to": "0xbdd1e681d19ce84e691c14f87b157cff1c181625",
        "gas": "0x1eee8",
        "value": "0x0",
        "input": "0x3141e25b000000000000000000000000b4359c18d30dde538cbd16b3206edd6832dc2c1f000000000000000000000000ed08e5b96a450f3000aea8e1b7c7a746199b275700000000000000000000000054e18c73f006db44632349b2df2fc5f489a851cd",
        "nonce": "0x7",
        "chainId": "0x128"
      },
      "additionalContracts": [],
      "isFixedGasLimit": false
    },
    {
      "hash": "0xee89540dbcbe3e82336a550c11846d81257cc24fad84da32dc5c1cc275a9a48f",
      "transactionType": "CALL",
      "contractName": null,
      "contractAddress": "0xb4359c18d30dde538cbd16b3206edd6832dc2c1f",
      "function": "setConfig(address,address)",
      "arguments": [
        "0xbDD1e681D19cE84E691C14f87B157CFf1c181625",
        "0xED08E5b96a450f3000aeA8e1b7c7A746199B2757"
      ],
      "transaction": {
        "from": "0x26ac13de5cb56a39f0c961fa6936ffc20b307ef1",
        "to": "0xb4359c18d30dde538cbd16b3206edd6832dc2c1f",
        "gas": "0x18a92",
        "value": "0x0",
        "input": "0xb602024b000000000000000000000000bdd1e681d19ce84e691c14f87b157cff1c181625000000000000000000000000ed08e5b96a450f3000aea8e1b7c7a746199b2757",
        "nonce": "0x8",
        "chainId": "0x128"
      },
      "additionalContracts": [],
      "isFixedGasLimit": false
    },
    {
      "hash": "0xcebf6aabdbfe5bd07effdf5b1c6dda2eb2532d53459b07790d3f00be7c87d876",
      "transactionType": "CALL",
      "contractName": null,
      "contractAddress": "0x1599fb939c00e5a9b0a4764ce94701a65614bc5e",
      "function": "setConfig(address,address)",
      "arguments": [
        "0x1b597ba645a8e6F81a499e91034D38eE9f0817Ff",
        "0xbDD1e681D19cE84E691C14f87B157CFf1c181625"
      ],
      "transaction": {
        "from": "0x26ac13de5cb56a39f0c961fa6936ffc20b307ef1",
        "to": "0x1599fb939c00e5a9b0a4764ce94701a65614bc5e",
        "gas": "0x9dd9",
        "value": "0x0",
        "input": "0xb602024b0000000000000000000000001b597ba645a8e6f81a499e91034d38ee9f0817ff000000000000000000000000bdd1e681d19ce84e691c14f87b157cff1c181625",
        "nonce": "0x9",
        "chainId": "0x128"
      },
      "additionalContracts": [],
      "isFixedGasLimit": false
    },
    {
      "hash": "0xe7c748d4f1e575288d993f13a4954896f6058e1c78678d444dfde59b4c568ae8",
      "transactionType": "CALL",
      "contractName": null,
      "contractAddress": "0xed08e5b96a450f3000aea8e1b7c7a746199b2757",
      "function": "setConfig(address,address)",
      "arguments": [
        "0x1599fb939C00E5a9b0A4764cE94701A65614bc5E",
        "0xB4359c18D30DDe538cBD16b3206Edd6832DC2C1F"
      ],
      "transaction": {
        "from": "0x26ac13de5cb56a39f0c961fa6936ffc20b307ef1",
        "to": "0xed08e5b96a450f3000aea8e1b7c7a746199b2757",
        "gas": "0x17467",
        "value": "0x0",
        "input": "0xb602024b0000000000000000000000001599fb939c00e5a9b0a4764ce94701a65614bc5e000000000000000000000000b4359c18d30dde538cbd16b3206edd6832dc2c1f",
        "nonce": "0xa",
        "chainId": "0x128"
      },
      "additionalContracts": [],
      "isFixedGasLimit": false
    }
  ],
  "receipts": [
    {
      "status": "0x1",
      "cumulativeGasUsed": "0x18bed",
      "logs": [],
      "logsBloom": "0x00000000000000000000000000000000000000000000000000000000000000000000000000000000000000000000000000000000000000000000000000000000000000000000000000000000000000000000000000000000000000000000000000000000000000000000000000000000000000000000000000000000000000000000000000000000000000000000000000000000000000000000000000000000000000000000000000000000000000000000000000000000000000000000000000000000000000000000000000000000000000000000000000000000000000000000000000000000000000000000000000000000000000000000000000000000",
      "type": "0x0",
      "transactionHash": "0x9eb5ed54762ec5902804ecda454efcf3ea3227c860ad3adefa00c6d87f61994e",
      "transactionIndex": "0x0",
      "blockHash": "0x5b0794b08b2d125a7a66ea4304e55645201e93f3ef3a9bf0b9751d9e69f2e1cc",
      "blockNumber": "0x18dd36d",
      "gasUsed": "0x18bed",
      "effectiveGasPrice": "0x6fc23ac000",
      "from": "0x26ac13de5cb56a39f0c961fa6936ffc20b307ef1",
      "to": "0xbdd1e681d19ce84e691c14f87b157cff1c181625",
      "contractAddress": "0xbdd1e681d19ce84e691c14f87b157cff1c181625",
      "root": "0x56e81f171bcc55a6ff8345e692c0f86e5b48e01b996cadc001622fb5e363b421"
    },
    {
      "status": "0x1",
      "cumulativeGasUsed": "0x13ba8",
      "logs": [],
      "logsBloom": "0x00000000000000000000000000000000000000000000000000000000000000000000000000000000000000000000000000000000000000000000000000000000000000000000000000000000000000000000000000000000000000000000000000000000000000000000000000000000000000000000000000000000000000000000000000000000000000000000000000000000000000000000000000000000000000000000000000000000000000000000000000000000000000000000000000000000000000000000000000000000000000000000000000000000000000000000000000000000000000000000000000000000000000000000000000000000",
      "type": "0x0",
      "transactionHash": "0xee89540dbcbe3e82336a550c11846d81257cc24fad84da32dc5c1cc275a9a48f",
      "transactionIndex": "0x1",
      "blockHash": "0x5fdfd8e51d5b4135398e260c61e3e71d59cfc167fdc31bb7bf05091612549acc",
      "blockNumber": "0x18dd371",
      "gasUsed": "0x13ba8",
      "effectiveGasPrice": "0x6fc23ac000",
      "from": "0x26ac13de5cb56a39f0c961fa6936ffc20b307ef1",
      "to": "0xb4359c18d30dde538cbd16b3206edd6832dc2c1f",
      "contractAddress": "0xb4359c18d30dde538cbd16b3206edd6832dc2c1f",
      "root": "0x56e81f171bcc55a6ff8345e692c0f86e5b48e01b996cadc001622fb5e363b421"
    },
    {
      "status": "0x1",
      "cumulativeGasUsed": "0x7e48",
      "logs": [],
      "logsBloom": "0x00000000000000000000000000000000000000000000000000000000000000000000000000000000000000000000000000000000000000000000000000000000000000000000000000000000000000000000000000000000000000000000000000000000000000000000000000000000000000000000000000000000000000000000000000000000000000000000000000000000000000000000000000000000000000000000000000000000000000000000000000000000000000000000000000000000000000000000000000000000000000000000000000000000000000000000000000000000000000000000000000000000000000000000000000000000",
      "type": "0x0",
      "transactionHash": "0xcebf6aabdbfe5bd07effdf5b1c6dda2eb2532d53459b07790d3f00be7c87d876",
      "transactionIndex": "0xb",
      "blockHash": "0xc3ba1a16d6a28d9dd549386efbdff6bc75950c8a1b663d792d2dd7e0dce9b067",
      "blockNumber": "0x18dd374",
      "gasUsed": "0x7e48",
      "effectiveGasPrice": "0x6fc23ac000",
      "from": "0x26ac13de5cb56a39f0c961fa6936ffc20b307ef1",
      "to": "0x1599fb939c00e5a9b0a4764ce94701a65614bc5e",
      "contractAddress": "0x1599fb939c00e5a9b0a4764ce94701a65614bc5e",
      "root": "0x56e81f171bcc55a6ff8345e692c0f86e5b48e01b996cadc001622fb5e363b421"
    },
    {
      "status": "0x1",
      "cumulativeGasUsed": "0x129ec",
      "logs": [],
      "logsBloom": "0x00000000000000000000000000000000000000000000000000000000000000000000000000000000000000000000000000000000000000000000000000000000000000000000000000000000000000000000000000000000000000000000000000000000000000000000000000000000000000000000000000000000000000000000000000000000000000000000000000000000000000000000000000000000000000000000000000000000000000000000000000000000000000000000000000000000000000000000000000000000000000000000000000000000000000000000000000000000000000000000000000000000000000000000000000000000",
      "type": "0x0",
      "transactionHash": "0xe7c748d4f1e575288d993f13a4954896f6058e1c78678d444dfde59b4c568ae8",
      "transactionIndex": "0x3",
      "blockHash": "0x4adf9b5b7b8f3632aa7f92489ed3f54333dd11a1a77d9b755e12fe42c5277d2f",
      "blockNumber": "0x18dd378",
      "gasUsed": "0x129ec",
      "effectiveGasPrice": "0x6fc23ac000",
      "from": "0x26ac13de5cb56a39f0c961fa6936ffc20b307ef1",
      "to": "0xed08e5b96a450f3000aea8e1b7c7a746199b2757",
      "contractAddress": "0xed08e5b96a450f3000aea8e1b7c7a746199b2757",
      "root": "0x56e81f171bcc55a6ff8345e692c0f86e5b48e01b996cadc001622fb5e363b421"
    }
  ],
  "libraries": [],
  "pending": [],
  "returns": {},
  "timestamp": 1760189888,
  "chain": 296,
  "commit": null
}